:020000040800F2
:10000000E8060020890100083F220008812000083E
:100010003D220008E70200082F270008000000002A
:100020000000000000000000000000004322000863
:10003000E9020008000000004122000845220008F3
:10004000A3010008A3010008A3010008A301000800
:10005000A3010008A3010008A3010008A3010008F0
:10006000A3010008A3010008A3010008A3010008E0
:10007000A3010008A3010008A3010008A3010008D0
:10008000A3010008A3010008A3010008A3010008C0
:10009000A3010008A3010008A3010008A3010008B0
:1000A000A3010008A3010008A3010008A3010008A0
:1000B000A3010008A301000800000000A30100083C
:1000C000A30100080000000000000000A3010008D8
:1000D00000000000A3010008A301000800000000C8
:1000E000A3010008A3010008A301000800F002F822
:1000F00000F03AF80AA090E8000C82448344AAF188
:100100000107DA4501D100F02FF8AFF2090EBAE885
:100110000F0013F0010F18BFFB1A43F0010318473B
:10012000C0270000E0270000103A24BF78C878C13B
:10013000FAD8520724BF30C830C144BF04680C60ED
:10014000704700000023002400250026103A28BF35
:1001500078C1FBD8520728BF30C148BF0B60704739
:100160001FB51FBD10B510BD00F058F81146FFF7C0
:10017000F7FF02F0EFFA00F076F803B4FFF7F2FFB2
:1001800003BC00F07DF8000009488047094800479B
:10019000FEE7FEE7FEE7FEE7FEE7FEE7FEE7FEE737
:1001A000FEE7FEE704480549054A064B7047000094
:1001B000BD220008ED000008E8000020E80600204D
:1001C000E8020020E80200204FF0000200B51346CC
:1001D00094469646203922BFA0E80C50A0E80C5067
:1001E000B1F12001BFF4F7AF090728BFA0E80C5018
:1001F00048BF0CC05DF804EB890028BF40F8042B11
:1002000008BF704748BF20F8022B11F0804F18BF7D
:1002100000F8012B7047704770477047754600F033
:100220002BF8AE4605006946534620F00700854688
:1002300018B020B5FFF7B6FFBDE820404FF000062C
:100240004FF000074FF000084FF0000B21F00701BE
:10025000AC46ACE8C009ACE8C009ACE8C009ACE801
:10026000C0098D46704710B50446AFF300802046A4
:10027000BDE81040FFF781BF0048704788000020AC
:1002800001491820ABBEFEE72600020070470000BF
:1002900070B5044600688168C943C90717D18168F1
:1002A00021F00101816000F039FC05460AE000BF41
:1002B00000F034FC401B022804D920688068C04349
:1002C000C00706D020688068C043C007F0D0002077
:1002D00070BDA06A40F01000A062E06A40F001002A
:1002E000E062012070BDFEE7704772B6FEE70000D5
:1002F0002DE9F8430026054600960068724F0C462B
:10030000B046B84207D07149884204D040F2DD714E
:100310006FA002F01DFA206830B3012824D0022813
:1003200022D0032820D004281ED005281CD006285F
:100330001AD0072818D0082816D0092814D00A285F
:1003400012D00B2810D00C280ED00D280CD00E285F
:100350000AD00F2808D0102806D0112804D040F267
:10036000DE715BA002F0F4F96068012822D0022857
:1003700020D003281ED004281CD005281AD0062817
:1003800018D0072816D0082814D0092812D00A2817
:1003900010D00B280ED00C280CD00D280AD00E2817
:1003A00008D00F2806D0102804D040F2DF7148A0F2
:1003B00002F0CEF9A06890B1012810D002280ED02A
:1003C00003280CD004280AD0052808D0062806D017
:1003D000072804D04FF4FC613DA002F0B9F995F86C
:1003E0002400012812D0012085F8240060681F2114
:1003F00007280ED22A68536B401E00EB8000814014
:100400008B43216881400B4353631AE00220BDE80F
:10041000F8832A680D280AD2136BC01F00EB8000F6
:1004200081408B43216881400B43136309E0D36A09
:100430000D3800EB800081408B43216881400B43E5
:10044000D362206807210A280BD32A68D3680A38A8
:1004500000EB400081408B43A16881400B43D36097
:1004600009E02B681A6900EB400081408A43A168CB
:1004700081400A431A612068102801D011281FD139
:100480002868B84217D18168090219D4816841F4FB
:10049000000181602068102812D11B481B490068A8
:1004A000B0FBF1F000EB8000400000E0401E009047
:1004B0000028FBD104E0A86A40F02000A8620126D1
:1004C00085F824803046A2E700240140002801403E
:1004D0002E2E2F447269766572732F53544D33322A
:1004E000463178785F48414C5F4472697665722F77
:1004F0005372632F73746D3332663178785F68613D
:100500006C5F6164632E63000C00002040420F00AA
:100510002DE9F0414FF000060400354676D07149D0
:100520002068884207D07049884204D040F2B31155
:100530006EA002F00DF9606838B1B0F5006F04D01C
:100540004FF4DA7169A002F003F9A0684FF48078E3
:1005500030B1404504D040F2B51164A002F0F8F883
:10056000207B30B1012804D04FF4DB715FA002F092
:10057000EFF8E069B0B1B0F5003F13D0B0F5C02F8F
:1005800010D0B0F5002F0DD0B0F5202F0AD0B0F567
:10059000402F07D0B0F5602F04D040F2B71153A020
:1005A00002F0D6F8A06800281CD02069401E0F2851
:1005B00004D940F2BB114DA002F0CAF8207D88B1E9
:1005C000012806D04FF4DE7148A002F0C1F8207D6A
:1005D00040B1A069401E072804D940F2BF1143A0D2
:1005E00002F0B6F8A06A002728B9E76284F8247000
:1005F000204600F09DF82046FFF74AFEA16AC90692
:1006000000D420B1A06A40F01000A06268E0A16AA6
:1006100021F4885141F00201A1626268E169237B03
:100620000A4346EA43010A43A1684646B14209D05B
:10063000012907D05FF0000194F814C0BCF1010F4C
:1006400002D00AE04146F7E7F3B1A36A43F0200382
:10065000A362E36A43F00103E3622368D3F804C0B2
:100660002CF4694C4CEA010CC3F804C021688B6877
:10067000DFF8B0C003EA0C0313438B60A168B142FA
:100680000BD0012909D00CE0DFF89CC0A3690CEB6A
:1006900043330B4343F40061DFE7218A0D05A5F5E1
:1006A00080152168CB6A23F470032B43CB62216849
:1006B00089681E4B1940914208D1E762A16A21F076
:1006C000020141F00101A162BDE8F081A06A20F0C1
:1006D000020040F01000A062E06A40F00100E06219
:1006E0000120F1E700240140002801402E2E2F4474
:1006F0007269766572732F53544D33324631787870
:100700005F48414C5F4472697665722F5372632F64
:1007100073746D3332663178785F68616C5F6164E1
:10072000632E6300FDF7E1FF00E0FFFFFE0E1FFFF9
:1007300000B585B0002100910191029103910068FC
:100740000E49884217D10E48816941F48061816168
:10075000816901F480610491816941F0080181613E
:100760008069694600F00800049003200090019021
:10077000044800F01BF805B000BD0000002801404F
:1007800000100240000C014070B5044600F0C6F9AC
:100790000546601C02D004480078044400F0BEF90D
:1007A000401BA042FAD370BD000000202DE9F84F95
:1007B0000027DFF880A2DFF880B20C460546B94674
:1007C00050450BD05D4509D09C48854206D09C48D9
:1007D000854203D0BD219BA001F0BAFF206801042F
:1007E000090C01D0000C03D0BE2196A001F0B0FF8F
:1007F000606800281FD00128FCD01128FAD00228F8
:10080000F8D01228F6D09E498842F3D09D498842FC
:10081000F0D09D498842EDD09C498842EAD09C495D
:100820008842E7D09B498842E4D00328E2D0BF2128
:1008300084A001F08DFFF6E0012000FA07F806EA37
:10084000080646457ED155450BD05D4509D07B480D
:10085000854206D07A48854203D0CD2179A001F0A7
:1008600077FF874861680A1A814258D00EDC032955
:1008700075D006DC002952D0012919D002296AD18D
:1008800031E0112921D0122965D13AE0B2F5881F53
:1008900045D006DCB2F5803F41D0B2F5801F5AD179
:1008A0003DE0B2F5001F3AD0B2F5041F53D136E057
:1008B000E068022807D0012805D0032803D0D521FD
:1008C00060A001F045FFE0683FE0E068022807D043
:1008D000012805D0032803D0DC215AA001F038FFFD
:1008E000E068001D31E0E068022807D0012805D04B
:1008F000032803D0E32153A001F02AFFE068083069
:1009000023E0E068022807D0012805D0032803D09F
:10091000EA214CA001F01CFFE0680C3015E0A06853
:1009200090B1012813D0022807D0F72145A001F08B
:100930000FFFA06840B1012809D04FF00809C5F8A1
:10094000148008E06EE00AE00420814603E04FF0E6
:100950000809C5F81080FF2E04D8294604E04FF09E
:100960000000F2E705F104014FEA870001D9A0F188
:1009700020000B684FF00F0202FA00FC23EA0C0380
:1009800009FA00FC43EA0C030B606068C00049D51B
:100990004148816941F001018161806927F00301CB
:1009A00000F0010000903D480B189868B9074FEA25
:1009B000117C02FA0CF29043554501D1002109E067
:1009C0005D4501D1012105E01C498D4201D1022183
:1009D00000E0032101FA0CF1014399606068C00353
:1009E0002F48016801D5314300E0B14301606068E0
:1009F00080032C48016801D5314300E0B143016018
:100A00006068C0022848016801D5314300E0B14365
:100A10000160606880022548016801D5314300E02B
:100A2000B14301607F1C20680646F8407FF404AFA4
:100A3000BDE8F88F00080140000C014000100140A3
:100A4000001401402E2E2F447269766572732F5365
:100A5000544D3332463178785F48414C5F44726977
:100A60007665722F5372632F73746D3332663178EB
:100A7000785F68616C5F6770696F2E6300000000CB
:100A800000001110000021100000311000001210B1
:100A9000000022100000321000100240000001404F
:100AA0000004014004040140080401400C0401401A
:100AB00070B515460C00064604D14FF4EA7108A043
:100AC00001F046FE45B1012D04D040F2D51104A03D
:100AD00001F03EFE346170BD2004306170BD000045
:100AE0002E2E2F447269766572732F53544D333214
:100AF000463178785F48414C5F4472697665722F61
:100B00005372632F73746D3332663178785F686126
:100B10006C5F6770696F2E63000000000148806899
:100B200070470000000000200248816802781144EC
:100B30008160704700000020074810B5016841F04F
:100B400010010160032000F097F80F2000F006F874
:100B500000F024F8002010BD0020024070B50D4DBB
:100B600004464FF47A712878B1FBF0F00A4909681D
:100B7000B1FBF0F000F01DFD48B9102C07D20022A7
:100B80002146501E00F028F800206C6070BD012046
:100B900070BD0000000000200C0000200C4808B5CB
:100BA000816941F001018161816901F001010091D8
:100BB000C16941F08051C161C06900F0805000906E
:100BC0000448416821F0E06141F00071416008BDD6
:100BD000001002400000014070B515460C46064664
:100BE000102A03D3AA2114A001F0B2FD102C03D3C4
:100BF000AB2111A001F0ACFD1E480068C0F3022338
:100C0000C3F107022046042A00D90422191D07292E
:100C100001D2002300E0DB1E012404FA02F1491E88
:100C2000014099409C40641E2C4021433046BDE861
:100C3000704001F07DBD00002E2E2F447269766554
:100C400072732F53544D3332463178785F48414C9C
:100C50005F4472697665722F5372632F73746D33BC
:100C600032663178785F68616C5F636F7274657843
:100C70002E6300000CED00E010B5044607280BD0F1
:100C8000062C09D0052C07D0042C05D0032C03D04A
:100C9000922108A001F05CFD154904F007020868E4
:100CA0004FF6FF03184040EA0220124A1043086042
:100CB00010BD00002E2E2F447269766572732F537B
:100CC000544D3332463178785F48414C5F44726905
:100CD0007665722F5372632F73746D333266317879
:100CE000785F68616C5F636F727465782E63000073
:100CF0000CED00E00000FA052DE9F8430446006819
:100D0000504DC1070AD181076FD4C0067ED46C2133
:100D10004DA001F01DFD2078C00763D0606800265B
:100D200060B1B0F5807F09D0B0F5007F06D0B0F596
:100D3000407F03D0742144A001F00AFDE869C0009F
:100D400008D4E86940F08050E861E869012600F0C5
:100D5000805000904B480168C90512D40168804654
:100D600041F480710160FFF7D9FE074605E000BF3E
:100D7000FFF7D4FEC01B642823D8D8F80000C005B4
:100D8000F6D5286A10F4407021D0A18801F4407192
:100D900081421CD0286A3C49012220F440700A603C
:100DA00000220A602862C00711D0FFF7B7FE07468D
:100DB00041F2883808E000BFFFF7B0FEC11B414593
:100DC00002D90320BDE8F883286A8007F4D5286A91
:100DD000616820F44070084328621EB1E86920F081
:100DE0008050E8612078800716D5A06860B1B0F522
:100DF000804F09D0B0F5004F06D0B0F5404F03D07A
:100E0000B92111A001F0A4FC686800E007E0A16826
:100E100020F44040084368602078C0060FD5E068A1
:100E2000B0F5800F05D020B140F2151106A001F0F9
:100E30008FFC6868E16820F4800008436860002047
:100E4000C0E70000001002402E2E2F447269766524
:100E500072732F53544D3332463178785F48414C8A
:100E60005F4472697665722F5372632F73746D33AA
:100E700032663178785F68616C5F7263635F657852
:100E80002E63000000700040400442422DE9F0470C
:100E90000F46050078D02868C1070AD1810708D419
:100EA000410706D4000704D44FF44E716FA001F03F
:100EB0004FFC47B1012F06D0022F04D040F2393148
:100EC0006AA001F045FC774E306800F00700B84298
:100ED00009D2306820F0070038433060306800F0F5
:100EE0000700B84277D128686F4C810729D54007A1
:100EF00003D5606840F4E06060602878000703D59F
:100F0000606840F460506060A868A0B1802812D08A
:100F1000902810D0A0280ED0B0280CD0C0280AD01D
:100F2000D02808D0E02806D0F02804D040F25F3165
:100F30004EA001F00DFC6068A96820F0F0000843A5
:100F400060602878C00737D0686868B101281CD075
:100F500002281DD040F2663144A001F0F9FB686818
:100F6000012812D0022813D020688007002832DA26
:100F70006068696820F0030008436060FFF7CEFDF9
:100F8000804641F2883910E025E020688003EDE7D3
:100F900020688001EAE700BFFFF7C0FDA0EB080171
:100FA000494502D90320BDE8F0876068696800F010
:100FB0000C00B0EB810FEFD1306800F00700B842B1
:100FC0000BD9306820F0070038433060306800F0FB
:100FD0000700B84201D00120E5E728784FF4806689
:100FE00040074FF4A0674FF4C0684FF4E06914D590
:100FF000E86860B1B0420AD0B84208D0404506D097
:10100000484504D04FF4697118A001F0A1FB606855
:10101000E96820F4E060084360602878000715D58F
:10102000286960B1B0420AD0B84208D0404506D025
:10103000484504D040F2AB310CA001F089FB606858
:10104000296920F4605040EAC100606000F034F883
:101050006168164AC1F30311515CC8401449086025
:1010600014480068FFF77AFD00209CE72E2E2F44DD
:101070007269766572732F53544D333246317878E6
:101080005F48414C5F4472697665722F5372632FDB
:1010900073746D3332663178785F68616C5F726348
:1010A000632E63000020024000100240D028000898
:1010B0000C0000200400002012A185B00FC98DE8AB
:1010C0000F0014A0144A006804905168134801F0FE
:1010D0000C03042B10D0082B0ED1C1F38343C9039A
:1010E0001DF803000AD5516804AAC1F34041515CC0
:1010F0000A4A5043B0FBF1F005B070470849484335
:10110000FAE7000002030405060708090A0B0C0DA4
:101110000E0F1010010200000010024000127A00B1
:1011200000093D002DE9F84F04007DD0FA4EFB4D3B
:1011300020684FF0010A4FF000084FF4803960B189
:10114000C1070DD1810762D401076ED440076DD469
:1011500040F26711F2A001F0FBFA2078C00753D0EB
:1011600060684FF4A02740B1484506D0B84204D08B
:1011700040F26D11EAA001F0EBFA6868C0F381005B
:10118000012807D06868C0F38100022809D1686887
:10119000C00306D52868800336D560680028C4D00F
:1011A00032E06068484503D1286840F4803009E0A7
:1011B00008B1B8420DD0286820F480302860286833
:1011C00020F480202860606888B1FFF7A7FC0746FC
:1011D00009E0286840F480202860E5E7FFF79EFCDE
:1011E000C01B642877D828688003F7D50CE0FFF788
:1011F00095FC074605E000BFFFF790FCC01B642884
:10120000F0D828688003F7D4207880074ED520696D
:1012100030B1012804D040F2A111C1A001F098FA28
:1012200060691F2808D902E096E042E07BE04FF4B5
:10123000D171BBA001F08CFA686810F00C0F07D0D8
:101240006868C0F38100022809D16868C00306D429
:101250002868800714D5206901287DD110E0206915
:10126000B0B1C6F800A0FFF759FC074605E000BF83
:10127000FFF754FCC01B0228B4D828688007F7D5B4
:101280002868616920F0F80040EAC10028600DE09C
:10129000C6F80080FFF742FC074604E0FFF73EFC7B
:1012A000C01B02289ED828688007F7D42078000742
:1012B00036D5A94FA06920B3012806D04FF4F171AB
:1012C00097A001F045FAA069D8B1C7F800A0FFF7D0
:1012D00025FC074605E054E1FFF720FCC01B02286F
:1012E0008ED8686A8007F7D59C484FF4FA51006899
:1012F000B0FBF1F0009000BF0098411E0091FAD2BF
:101300000EE0C7F80080FFF709FC074605E000BFC4
:10131000FFF704FCC01B0228AED8686A8007F7D428
:10132000207840076ED5E068002740B1012806D03C
:10133000052804D040F2112179A001F009FAE869EA
:10134000C00008D4E86940F08050E861E8690127EE
:1013500000F08050009000E027E181480168C90555
:1013600012D4016841F480710160FFF7D7FB834616
:1013700006E000BFFFF7D2FBA0EB0B00642891D87A
:1013800077480068C005F5D5E06801280AD008B1A3
:10139000052811D0286A20F001002862286A20F070
:1013A000040002E0286A40F001002862E068A8B169
:1013B000FFF7B4FB83460DE0286A40F00400286282
:1013C000F0E700BFFFF7AAFBA0EB0B0141F288306A
:1013D000814285D8286A8007F4D50EE0FFF79EFB8E
:1013E000834607E0FFF79AFBA0EB0B0141F2883040
:1013F000814291D8286A8007F4D41FB1E86920F0AF
:101400008050E861E06900287ED0012809D00228D8
:1014100007D040F2AF2142A001F09AF9E06900281C
:1014200072D06868C0F381000228E0696DD002289C
:1014300005D0C6F86080FFF771FB0446A4E0206A7F
:1014400030B1484504D04FF42E7135A001F080F939
:10145000606A70B3B0F5802F2BD0B0F5002F28D084
:10146000B0F5402F25D0B0F5801F22D0B0F5A01FD9
:101470001FD0B0F5C01F1CD0B0F5E01F19D0B0F5DB
:10148000001F16D0B0F5101F13D0B0F5201F10D0DC
:10149000B0F5301F0DD0B0F5401F0AD0B0F5501F89
:1014A00007D0B0F5601F04D040F2B9211CA001F0B4
:1014B0004FF9C6F86080FFF731FB074605E000BF33
:1014C000FFF72CFBC01B02285BD828688001F7D4EB
:1014D000206A48450FD1A06838B1B0F5003F04D06C
:1014E00040F2CF210EA001F033F96868A16820F422
:1014F000003008436860D4E908010843696821F4B2
:1015000074110843686001E051E041E0C6F860A052
:10151000FFF704FB04462AE00000424200100240AC
:101520002E2E2F447269766572732F53544D3332C9
:10153000463178785F48414C5F4472697665722F16
:101540005372632F73746D3332663178785F6861DC
:101550006C5F7263632E6300800442420C000020C3
:1015600000700040FFF7DAFA001B022809D828684B
:101570008001F7D51BE000BFFFF7D0FA001B02285F
:1015800002D90320BDE8F88F28688001F4D40EE06A
:101590000128F7D06868226A00F48031914204D1B2
:1015A000616A00F47010884201D00120EAE700204F
:1015B000E8E710B5401EB0F1807F01D3012010BDD7
:1015C0004FF0E02460610F21601701F0B1F80020B6
:1015D000A06107202061002010BD000070B50C46FE
:1015E000054600683D49884204D040F2C3713CA0E2
:1015F00001F0AEF82068B0F5006F05D020B140F2E0
:10160000C47137A001F0A4F86068B0F5806F05D010
:1016100020B140F2C57132A001F09AF8A06868B11B
:10162000B0F5807F0AD0B0F5007F07D0B0F5407FDD
:1016300004D040F2C6712AA001F08AF8E068FF28C1
:1016400004D940F2C77126A001F082F82069B0F5F4
:10165000805F05D020B14FF4F96121A001F078F846
:10166000606938B1B0F5005F04D040F2C9711CA0C8
:1016700001F06EF8E069B0F5804F05D020B140F27E
:10168000CA7117A001F064F895F83C00012822D037
:10169000012085F83C00E068A26820F44070104307
:1016A000626820F480601043226820F400601043D8
:1016B000226920F480501043626920F400501043E6
:1016C000E269002120F4804010432A68506485F8C4
:1016D0003C10002070BD022070BD0000002C0140B5
:1016E0002E2E2F447269766572732F53544D333208
:1016F000463178785F48414C5F4472697665722F55
:101700005372632F73746D3332663178785F68611A
:101710006C5F74696D5F65782E6300002DE9F041A0
:10172000044600682A4E2B4F0D464FF08048B042C9
:1017300008D0404506D0B84204D040F2867126A0B9
:1017400001F006F8286890B1102810D020280ED09B
:1017500030280CD040280AD0502808D0602806D065
:10176000702804D040F287711BA000F0F1FF686878
:10177000802805D020B14FF4F16117A000F0E8FFF8
:1017800094F83C00012821D0012284F83C2002205A
:1017900084F83D00216848688B6820F0700C286848
:1017A00040EA0C0048602068B04203D0404501D0B8
:1017B000B84204D1696823F080031943816084F83A
:1017C0003D20002084F83C00BDE8F0810220FBE7CA
:1017D000002C0140000400402E2E2F4472697665D3
:1017E00072732F53544D3332463178785F48414CF1
:1017F0005F4472697665722F5372632F73746D3311
:1018000032663178785F68616C5F74696D5F6578A6
:101810002E63000010B5040037D02F49206888429D
:101820000AD0B0F1804F07D02C49884204D040F252
:1018300013112BA000F08CFFA06860B110280AD013
:10184000202808D0402806D0602804D04FF48A71A0
:1018500023A000F07DFF206950B1B0F5807F07D054
:10186000B0F5007F04D040F215111DA000F070FF0C
:10187000A06930B1802804D04FF48B7118A000F01B
:1018800067FF94F83D0010B107E0012010BD002073
:1018900084F83C00204600F03FF8022084F83D0028
:1018A000211D206800F00CFD012084F8460084F81A
:1018B0003E0084F83F0084F8400084F8410084F83A
:1018C000420084F8430084F8440084F8450084F81A
:1018D0003D00002010BD0000002C0140000400402D
:1018E0002E2E2F447269766572732F53544D333206
:1018F000463178785F48414C5F4472697665722F53
:101900005372632F73746D3332663178785F686118
:101910006C5F74696D2E630008B5006806498842E3
:1019200008D10648816941F400618161806900F451
:101930000060009008BD0000002C01400010024033
:101940002DE9F047054690F83C000C4601283BD0B5
:101950004FF0010985F83C90022085F83D00206891
:101960004FF480564FF40058B04215D0404513D084
:1019700090B1102810D020280ED030280CD040284C
:101980000AD0502808D0602806D0702804D041F230
:101990003241A0A000F0DCFE2968886820F07700C2
:1019A00020F47F408860AA492268A848CF134FF0EE
:1019B0008043502A7ED00FDC202A04D007DC002A86
:1019C000FBD0102A4BD116E10220BDE8F087302A67
:1019D000F9D0402AF6D1E5E0602A6CD04FF4405AA5
:1019E000702A4AD0B2423BD04245EBD12A688242AB
:1019F00008D09A4206D08A4204D041F25D4185A0C7
:101A000000F0A6FEA06850B1B04208D0404506D014
:101A1000504504D04FF4A3517EA000F099FE6068B9
:101A2000B84209D040B1022806D00A2804D041F2B9
:101A3000614178A000F08CFEE0680F2804D941F2E3
:101A4000624174A000F084FED4E90121E3682868B3
:101A500000F0B0FC2868816841F4804181609BE01F
:101A60002A688242FBD09A42F9D08A42F7D041F2EA
:101A70003E4168A000F06CFE8EE02A68824208D0E9
:101A80009A4206D08A4204D041F2454161A000F05A
:101A90005FFEA06850B1B04208D0404506D0504526
:101AA00004D041F248415BA000F052FE6068B842A9
:101AB0000CD001E01DE045E040B1022806D00A2824
:101AC00004D041F2494153A000F042FEE0680F28E3
:101AD00004D941F24A414FA000F03AFED4E9012175
:101AE000E368286800F066FC2868816841F07701A7
:101AF000B4E72A68824208D09A4206D08A4204D0CB
:101B000041F2714143A000F023FE6068B84209D061
:101B100040B1022806D00A2804D041F274413DA009
:101B200000F016FEE0680F2804D941F2754139A093
:101B300000F00EFEE2686168286800F0D5FD5021D3
:101B4000286827E02A68824208D09A4206D08A4252
:101B500004D041F281412FA000F0FAFD6068B84244
:101B600009D040B1022806D00A2804D041F28441AD
:101B700028A000F0EDFDE0680F2804D941F285416E
:101B800024A000F0E5FDE2686168286800F0BDFD72
:101B90006021286800F018FC85F83D90002085F849
:101BA0003C0012E72A68824208D09A4206D08A4254
:101BB00004D041F2914117A000F0CAFD6068B8421C
:101BC00009D040B1022806D00A2804D041F294413D
:101BD00010A000F0BDFDE0680F2804D941F2954146
:101BE0000CA000F0B5FDE2686168286800F07CFD9B
:101BF00040212868CEE72A68824208D09A4206D05F
:101C00008A4204D041F2A44102A000F0A1FD216863
:101C10002868BFE72E2E2F447269766572732F53A2
:101C2000544D3332463178785F48414C5F44726995
:101C30007665722F5372632F73746D333266317809
:101C4000785F68616C5F74696D2E6300002C0140E1
:101C50000004004000B585B000210091019102917F
:101C6000039100680B49884212D10B48816941F009
:101C7000040181618069694600F0040004904FF41A
:101C8000407000900220019003900448FEF78EFD02
:101C900005B000BD002C01400010024000080140CA
:101CA00070B516000D4604460CD0042E0AD0082E3E
:101CB00008D00C2E06D03C2E04D041F227015BA0A8
:101CC00000F046FD2868602806D0702804D041F254
:101CD000280156A000F03CFDA86830B1022804D0CD
:101CE00041F2290151A000F033FD286930B10428E8
:101CF00004D041F22A014DA000F02AFD94F83C00E6
:101D000001280ED0012084F83C00564856494FF077
:101D1000804346B1042E25D0082E44D00C2E41D14C
:101D200060E0022070BD2268824208D09A4206D04C
:101D30008A4204D041F234013CA000F009FD29465A
:101D4000206800F049FB2068816941F00801816149
:101D50002068816921F004018161206881692A6914
:101D600011431EE02268824208D09A4206D08A427D
:101D700004D041F245012DA000F0EAFC294620687C
:101D800000F090FB2068816941F400618161206866
:101D9000816921F480618161206881692A6941EA51
:101DA000022181613EE02268824208D09A4206D038
:101DB0008A4204D041F256011CA000F0C9FC294619
:101DC000206800F0D9FB2068C16941F00801C161B9
:101DD0002068C16921F00401C1612068C1692A69D4
:101DE00011431EE02268824208D09A4206D08A42FD
:101DF00004D041F267010DA000F0AAFC294620683A
:101E000000F024FC2068C16941F40061C1612068D0
:101E1000C16921F48061C1612068C1692A6941EA10
:101E20000221C161002084F83C0070BD2E2E2F4499
:101E30007269766572732F53544D33324631787818
:101E40005F48414C5F4472697665722F5372632F0D
:101E500073746D3332663178785F68616C5F746972
:101E60006D2E6300002C01400004004010B50400FA
:101E700037D02F49206888420AD0B0F1804F07D070
:101E80002C49884204D040F213512BA000F060FC92
:101E9000A06860B110280AD0202808D0402806D0B9
:101EA000602804D040F2145123A000F051FC2069B6
:101EB00050B1B0F5807F07D0B0F5007F04D040F27C
:101EC00015511DA000F044FCA06930B1802804D059
:101ED00040F2165118A000F03BFC94F83D0010B100
:101EE00007E0012010BD002084F83C00204600F0EF
:101EF0003FF8022084F83D00211D206800F0E0F941
:101F0000012084F8460084F83E0084F83F0084F8FD
:101F1000400084F8410084F8420084F8430084F8CB
:101F2000440084F8450084F83D00002010BD000006
:101F3000002C0140000400402E2E2F44726976656B
:101F400072732F53544D3332463178785F48414C89
:101F50005F4472697665722F5372632F73746D33A9
:101F600032663178785F68616C5F74696D2E6300EA
:101F7000704700002DE9F04705460068304E022703
:101F8000DFF8C0800C464FF08049B04206D10CB358
:101F9000042C26D0082C2BD00C2C14D0484501D072
:101FA000404506D1B4B1042C1BD0082C20D00C2CF9
:101FB00009D040F2995124A000F0CAFB54B1042C7E
:101FC0000FD0082C14D095F84100012817D001201B
:101FD000BDE8F08795F83E000128F8D185F83E70FD
:101FE0000FE095F83F000128F1D185F83F7008E037
:101FF00095F840000128EAD185F8407001E085F8A5
:10200000417001222146286800F088F92868B04212
:1020100003D1416C41F4004141642868B04203D0CF
:10202000484501D0404504D1816801F007010629E7
:1020300003D0016841F0010101600020C8E7000001
:10204000002C0140000400402E2E2F44726976655A
:1020500072732F53544D3332463178785F48414C78
:102060005F4472697665722F5372632F73746D3398
:1020700032663178785F68616C5F74696D2E6300D9
:10208000FEE700003EB5002411480094019402943C
:102090000E498460016004730475012505614FF4E5
:1020A00060214460C161FEF733FA08B1FEF71DF903
:1020B0000920CDE90005694602940548FEF718F9A4
:1020C000002801D0FEF711F93EBD000000280140B4
:1020D000100000202DE9F04186B000241C48009437
:1020E000019402940394816941F004018161816942
:1020F00001F004010491816941F008018161806966
:10210000144F00F0080004900022FF213846FEF72B
:10211000CFFCDFF84480012278214046FEF7C8FC5E
:10212000FF2001250226CDE90005CDE902466946DA
:102130003846FEF73BFB7820CDE90005CDE90246A5
:1021400069464046FEF732FB06B0BDE8F08100006C
:102150000010024000080140000C014010B596B08C
:1021600000240F9410941194129413941C21684627
:102170001494FEF729F8202107A8FEF725F82E4829
:102180002C49016040F60F61C0E901146321C0E9E8
:1021900003148021C0E90541FFF73CFB08B1FEF7BD
:1021A000A4F84FF480500F900FA92348FFF7C8FB05
:1021B00008B1FEF79AF82048FFF758FE08B1FEF77D
:1021C00094F8139413A91C481494FFF7A7FA08B1C4
:1021D000FEF78BF8602000903220CDE901040394D3
:1021E000049405940022694613480694FFF758FDAD
:1021F00008B1FEF77AF850200190042269460E4893
:10220000FFF74EFD08B1FEF770F8079408940994A3
:102210004FF400500A94CDE90B4007A906480E94EC
:10222000FFF7DCF908B1FEF760F80348FFF712FD8D
:1022300016B010BD002C014040000020FEE7FEE774
:1022400070477047FEF770BC30B593B028216846E0
:10225000FDF7BAFF14210AA8FDF7B6FF00240225F6
:1022600001200F94049000951020059012944FF4D3
:10227000E010CDE908401194109407956846FEF7E8
:1022800051FF08B172B6FEE70F200A90CDE90B545A
:102290000D9401210AA80E94FEF7F8FD08B172B65C
:1022A000FEE74FF4804011900F950FA8FEF724FD34
:1022B000002801D072B6FEE713B030BD70470000B1
:1022C00070B50268134B144C4FF08046984203D00F
:1022D000B04201D0A04203D122F070054A682A43DF
:1022E000984203D0B04201D0A04203D122F44074FE
:1022F000CA6822434C6922F08002224302608A6845
:10230000C2620A688262984201D1096901630121AF
:10231000416170BD002C01400004004070B50446CE
:10232000144816460D4684420AD0B4F1804F07D0B7
:102330001148844204D041F6095110A000F008FA77
:1023400065B1042D0AD0082D08D00C2D06D03C2DE7
:1023500004D041F60A5109A000F0FAF905F01F0176
:102360000120226A884082432262206A8E403043E4
:10237000206270BD002C0140000400402E2E2F442E
:102380007269766572732F53544D333246317878C3
:102390005F48414C5F4472697665722F5372632FB8
:1023A00073746D3332663178785F68616C5F74691D
:1023B0006D2E630010B5846842EA032224F47F4442
:1023C0000A432243826010BD826822F070020A43F1
:1023D00042F00701816070472DE9F0410446006A30
:1023E0000D4620F001002062206A6768A169AE688E
:1023F00020F0020021F07302064329681A4841EADE
:102400000208844228D1E86830B1082804D041F697
:10241000412116A000F09CF9E86826F00801084365
:1024200020F00406A869B0F5007F05D020B141F680
:102430004E210EA000F08CF96869B0F5807F05D0C0
:1024400020B141F64F2109A000F082F927F4407134
:102450006869AF69084307436760C4F81880686813
:1024600060632662BDE8F081002C01402E2E2F44CF
:102470007269766572732F53544D333246317878D2
:102480005F48414C5F4472697665722F5372632FC7
:1024900073746D3332663178785F68616C5F74692C
:1024A0006D2E63002DE9F0410446006A0D4620F0D0
:1024B00010002062206A6768A1692A6821F4E64159
:1024C00041EA0228A96820F0200040EA01161B48D2
:1024D00084422BD1E86830B1082804D041F68C2121
:1024E00017A000F035F9E96826F0800040EA0110F5
:1024F00020F04006A869B0F5007F05D020B141F674
:102500009A210FA000F024F96869B0F5807F05D00A
:1025100020B141F69B210AA000F01AF9696927F45D
:10252000406040EA8100A96940EA81076760C4F819
:1025300018806868A0632662BDE8F081002C014025
:102540002E2E2F447269766572732F53544D333299
:10255000463178785F48414C5F4472697665722FE6
:102560005372632F73746D3332663178785F6861AC
:102570006C5F74696D2E63002DE9F0410446006ABA
:102580000D4620F480702062206A6768E16920F4BB
:10259000007021F07302296841EA0208A96840EA44
:1025A00001261B4884422BD1E86830B1082804D0AA
:1025B00041F6D72117A000F0CBF8E96826F40060B7
:1025C00040EA012020F48066A869B0F5007F05D0BC
:1025D00020B141F6E4210FA000F0BAF86869B0F527
:1025E000807F05D020B141F6E5210AA000F0B0F8C7
:1025F000696927F4405040EA0110A96940EA0117CF
:102600006760C4F81C806868E0632662BDE8F081FA
:10261000002C01402E2E2F447269766572732F5361
:10262000544D3332463178785F48414C5F4472698B
:102630007665722F5372632F73746D3332663178FF
:10264000785F68616C5F74696D2E63002DE9F041FD
:102650000446006A0D4620F480502062206A6668B5
:10266000E1692A6821F4E64141EA0228A96820F4D8
:10267000005040EA01370D4884420ED16869B0F538
:10268000807F05D020B141F6233109A000F060F829
:10269000696926F4804040EA81166660C4F81C80AF
:1026A000686820642762BDE8F0810000002C0140CA
:1026B0002E2E2F447269766572732F53544D333228
:1026C000463178785F48414C5F4472697665722F75
:1026D0005372632F73746D3332663178785F68613B
:1026E0006C5F74696D2E630010B5036A046A24F090
:1026F00001040462846924F0F00444EA021423F023
:102700000A020A438461026210BD10B5036A23F015
:10271000100303628369046A23F4704343EA0232BC
:1027200024F0A00343EA01118261016210BDFEE7BB
:102730000907090E002804DB00F1E02080F80014EE
:10274000704700F00F0000F1E02080F8141D704782
:1027500070470000FEF7F0F9FFF776FDFFF7BAFCCF
:10276000FFF7FCFCFFF78EFC00212048FFF702FC7E
:1027700004211E48FFF7FEFB1D4D6424012000F0DC
:1027800039F8002208212846FEF792F92046FDF785
:10279000FBFF012208212846FEF78AF900221021BA
:1027A0002846FEF785F92046FDF7EEFF01221021AD
:1027B0002846FEF77DF9002220212846FEF778F909
:1027C0002046FDF7E1FF012220212846FEF770F99F
:1027D000002240212846FEF76BF92046FDF7D4FF82
:1027E000012240212846FEF763F9C7E74000002098
:1027F000000C014010B5354C0A2866D2DFE800F025
:1028000065052540404040404040002202212046CE
:10281000FEF74EF9012204212046FEF749F9012274
:1028200008212046FEF744F9002210212046FEF739
:102830003FF9002220212046FEF73AF900224021EC
:102840002046FEF735F9002239E001220221204618
:10285000FEF72EF9012204212046FEF729F9002275
:1028600008212046FEF724F9012210212046FEF718
:102870001FF9012220212046FEF71AF9002219E053
:10288000012202212046FEF713F9012204212046ED
:10289000FEF70EF9012208212046FEF709F9012270
:1028A00010212046FEF704F9012220212046FEF7E0
:1028B000FFF8012240212046FEF7FAF801222046C7
:1028C000BDE810408021FEF7F3B810BD00080140BC
:1028D00000000000000000000102030406070809D0
:1028E0000029000800000020100000002801000856
:1028F0001029000810000020D8060000440100083C
:102900000100000010000000000000000024F4009E
:04000005080000ED02
:00000001FF
